{
	"data": {
		"bytecode": {
			"linkReferences": {},
			"object": "608060405260008060016101000a81548160ff0219169083600381111561002257fe5b021790555034801561003357600080fd5b50610182806100436000396000f3fe608060405234801561001057600080fd5b506004361061004c5760003560e01c8063862b712914610051578063b46e8d1a1461005b578063e0be4a2e14610084578063e9073c33146100b2575b600080fd5b6100596100bc565b005b6100636100e1565b6040518082600181111561007357fe5b815260200191505060405180910390f35b6100b06004803603602081101561009a57600080fd5b81019080803590602001909291905050506100f7565b005b6100ba610127565b005b60016000806101000a81548160ff021916908360018111156100da57fe5b0217905550565b60008060009054906101000a900460ff16905090565b80600181111561010357fe5b6000806101000a81548160ff0219169083600181111561011f57fe5b021790555050565b60008060006101000a81548160ff0219169083600181111561014557fe5b021790555056fea2646970667358221220d0fe4af2f3a8247ef2f95b46f0b36b064903a372c93f945ee0768078633dafa564736f6c634300060c0033",
			"opcodes": "PUSH1 0x80 PUSH1 0x40 MSTORE PUSH1 0x0 DUP1 PUSH1 0x1 PUSH2 0x100 EXP DUP2 SLOAD DUP2 PUSH1 0xFF MUL NOT AND SWAP1 DUP4 PUSH1 0x3 DUP2 GT ISZERO PUSH2 0x22 JUMPI INVALID JUMPDEST MUL OR SWAP1 SSTORE POP CALLVALUE DUP1 ISZERO PUSH2 0x33 JUMPI PUSH1 0x0 DUP1 REVERT JUMPDEST POP PUSH2 0x182 DUP1 PUSH2 0x43 PUSH1 0x0 CODECOPY PUSH1 0x0 RETURN INVALID PUSH1 0x80 PUSH1 0x40 MSTORE CALLVALUE DUP1 ISZERO PUSH2 0x10 JUMPI PUSH1 0x0 DUP1 REVERT JUMPDEST POP PUSH1 0x4 CALLDATASIZE LT PUSH2 0x4C JUMPI PUSH1 0x0 CALLDATALOAD PUSH1 0xE0 SHR DUP1 PUSH4 0x862B7129 EQ PUSH2 0x51 JUMPI DUP1 PUSH4 0xB46E8D1A EQ PUSH2 0x5B JUMPI DUP1 PUSH4 0xE0BE4A2E EQ PUSH2 0x84 JUMPI DUP1 PUSH4 0xE9073C33 EQ PUSH2 0xB2 JUMPI JUMPDEST PUSH1 0x0 DUP1 REVERT JUMPDEST PUSH2 0x59 PUSH2 0xBC JUMP JUMPDEST STOP JUMPDEST PUSH2 0x63 PUSH2 0xE1 JUMP JUMPDEST PUSH1 0x40 MLOAD DUP1 DUP3 PUSH1 0x1 DUP2 GT ISZERO PUSH2 0x73 JUMPI INVALID JUMPDEST DUP2 MSTORE PUSH1 0x20 ADD SWAP2 POP POP PUSH1 0x40 MLOAD DUP1 SWAP2 SUB SWAP1 RETURN JUMPDEST PUSH2 0xB0 PUSH1 0x4 DUP1 CALLDATASIZE SUB PUSH1 0x20 DUP2 LT ISZERO PUSH2 0x9A JUMPI PUSH1 0x0 DUP1 REVERT JUMPDEST DUP2 ADD SWAP1 DUP1 DUP1 CALLDATALOAD SWAP1 PUSH1 0x20 ADD SWAP1 SWAP3 SWAP2 SWAP1 POP POP POP PUSH2 0xF7 JUMP JUMPDEST STOP JUMPDEST PUSH2 0xBA PUSH2 0x127 JUMP JUMPDEST STOP JUMPDEST PUSH1 0x1 PUSH1 0x0 DUP1 PUSH2 0x100 EXP DUP2 SLOAD DUP2 PUSH1 0xFF MUL NOT AND SWAP1 DUP4 PUSH1 0x1 DUP2 GT ISZERO PUSH2 0xDA JUMPI INVALID JUMPDEST MUL OR SWAP1 SSTORE POP JUMP JUMPDEST PUSH1 0x0 DUP1 PUSH1 0x0 SWAP1 SLOAD SWAP1 PUSH2 0x100 EXP SWAP1 DIV PUSH1 0xFF AND SWAP1 POP SWAP1 JUMP JUMPDEST DUP1 PUSH1 0x1 DUP2 GT ISZERO PUSH2 0x103 JUMPI INVALID JUMPDEST PUSH1 0x0 DUP1 PUSH2 0x100 EXP DUP2 SLOAD DUP2 PUSH1 0xFF MUL NOT AND SWAP1 DUP4 PUSH1 0x1 DUP2 GT ISZERO PUSH2 0x11F JUMPI INVALID JUMPDEST MUL OR SWAP1 SSTORE POP POP JUMP JUMPDEST PUSH1 0x0 DUP1 PUSH1 0x0 PUSH2 0x100 EXP DUP2 SLOAD DUP2 PUSH1 0xFF MUL NOT AND SWAP1 DUP4 PUSH1 0x1 DUP2 GT ISZERO PUSH2 0x145 JUMPI INVALID JUMPDEST MUL OR SWAP1 SSTORE POP JUMP INVALID LOG2 PUSH5 0x6970667358 0x22 SLT KECCAK256 0xD0 INVALID 0x4A CALLCODE RETURN 0xA8 0x24 PUSH31 0xF2F95B46F0B36B064903A372C93F945EE0768078633DAFA564736F6C634300 MOD 0xC STOP CALLER "
		},
		"gasEstimates": {
			"creation": {
				"codeDepositCost": "77200",
				"executionCost": "21066",
				"totalCost": "98266"
			},
			"external": {
				"Estado()": "1075",
				"apagar()": "21009",
				"encender()": "21075",
				"fijarEstado(uint256)": "21163"
			}
		},
		"methodIdentifiers": {
			"Estado()": "b46e8d1a",
			"apagar()": "862b7129",
			"encender()": "e9073c33",
			"fijarEstado(uint256)": "e0be4a2e"
		}
	},
	"abi": [
		{
			"inputs": [],
			"name": "Estado",
			"outputs": [
				{
					"internalType": "enum Enums.estado",
					"name": "",
					"type": "uint8"
				}
			],
			"stateMutability": "view",
			"type": "function"
		},
		{
			"inputs": [],
			"name": "apagar",
			"outputs": [],
			"stateMutability": "nonpayable",
			"type": "function"
		},
		{
			"inputs": [],
			"name": "encender",
			"outputs": [],
			"stateMutability": "nonpayable",
			"type": "function"
		},
		{
			"inputs": [
				{
					"internalType": "uint256",
					"name": "_k",
					"type": "uint256"
				}
			],
			"name": "fijarEstado",
			"outputs": [],
			"stateMutability": "nonpayable",
			"type": "function"
		}
	]
}