{
	"BLOCK 1/casteo_variables.sol": {
		"CasteoVariables": {
			"abi": [
				{
					"inputs": [],
					"name": "casteo_1",
					"outputs": [
						{
							"internalType": "uint64",
							"name": "",
							"type": "uint64"
						}
					],
					"stateMutability": "view",
					"type": "function"
				},
				{
					"inputs": [],
					"name": "casteo_2",
					"outputs": [
						{
							"internalType": "uint64",
							"name": "",
							"type": "uint64"
						}
					],
					"stateMutability": "view",
					"type": "function"
				},
				{
					"inputs": [],
					"name": "casteo_3",
					"outputs": [
						{
							"internalType": "uint8",
							"name": "",
							"type": "uint8"
						}
					],
					"stateMutability": "view",
					"type": "function"
				}
			],
			"devdoc": {
				"kind": "dev",
				"methods": {},
				"version": 1
			},
			"evm": {
				"assembly": "    /* \"BLOCK 1/casteo_variables.sol\":69:534  contract CasteoVariables {\r... */\n  mstore(0x40, 0x80)\n    /* \"BLOCK 1/casteo_variables.sol\":166:168  42 */\n  0x2a\n    /* \"BLOCK 1/casteo_variables.sol\":143:168  uint8  entero_8_bits = 42 */\n  0x00\n  dup1\n  0x0100\n  exp\n  dup2\n  sload\n  dup2\n  0xff\n  mul\n  not\n  and\n  swap1\n  dup4\n  0xff\n  and\n  mul\n  or\n  swap1\n  sstore\n  pop\n    /* \"BLOCK 1/casteo_variables.sol\":199:204  60000 */\n  0xea60\n    /* \"BLOCK 1/casteo_variables.sol\":175:204  uint64 entero_64_bits = 60000 */\n  0x00\n  exp(0x0100, 0x01)\n  dup2\n  sload\n  dup2\n  0xffffffffffffffff\n  mul\n  not\n  and\n  swap1\n  dup4\n  0xffffffffffffffff\n  and\n  mul\n  or\n  swap1\n  sstore\n  pop\n    /* \"BLOCK 1/casteo_variables.sol\":261:264  156 */\n  0x9c\n    /* \"BLOCK 1/casteo_variables.sol\":238:264  int16 entero_16_bits = 156 */\n  0x02\n  exp(0x0100, 0x00)\n  dup2\n  sload\n  dup2\n  0xffff\n  mul\n  not\n  and\n  swap1\n  dup4\n  0x01\n  signextend\n  0xffff\n  and\n  mul\n  or\n  swap1\n  sstore\n  pop\n    /* \"BLOCK 1/casteo_variables.sol\":296:302  900000 */\n  0x0dbba0\n    /* \"BLOCK 1/casteo_variables.sol\":271:302  int120 entero_120_bits = 900000 */\n  0x02\n  dup1\n  0x0100\n  exp\n  dup2\n  sload\n  dup2\n  0xffffffffffffffffffffffffffffff\n  mul\n  not\n  and\n  swap1\n  dup4\n  0x0e\n  signextend\n  0xffffffffffffffffffffffffffffff\n  and\n  mul\n  or\n  swap1\n  sstore\n  pop\n    /* \"BLOCK 1/casteo_variables.sol\":322:329  5000000 */\n  0x4c4b40\n    /* \"BLOCK 1/casteo_variables.sol\":309:329  int entero = 5000000 */\n  0x03\n  sstore\n    /* \"BLOCK 1/casteo_variables.sol\":401:414  entero_8_bits */\n  0x00\n  dup1\n  sload\n  swap1\n  0x0100\n  exp\n  swap1\n  div\n  0xff\n  and\n    /* \"BLOCK 1/casteo_variables.sol\":394:415  uint64(entero_8_bits) */\n  0xff\n  and\n    /* \"BLOCK 1/casteo_variables.sol\":369:415  uint64 public casteo_1 = uint64(entero_8_bits) */\n  0x04\n  exp(0x0100, 0x00)\n  dup2\n  sload\n  dup2\n  0xffffffffffffffff\n  mul\n  not\n  and\n  swap1\n  dup4\n  0xffffffffffffffff\n  and\n  mul\n  or\n  swap1\n  sstore\n  pop\n    /* \"BLOCK 1/casteo_variables.sol\":454:469  entero_256_bits */\n  sload(0x01)\n    /* \"BLOCK 1/casteo_variables.sol\":422:470  uint64 public casteo_2 = uint64(entero_256_bits) */\n  0x04\n  exp(0x0100, 0x08)\n  dup2\n  sload\n  dup2\n  0xffffffffffffffff\n  mul\n  not\n  and\n  swap1\n  dup4\n  0xffffffffffffffff\n  and\n  mul\n  or\n  swap1\n  sstore\n  pop\n    /* \"BLOCK 1/casteo_variables.sol\":507:521  entero_16_bits */\n  0x02\n  0x00\n  swap1\n  sload\n  swap1\n  0x0100\n  exp\n  swap1\n  div\n  0x01\n  signextend\n    /* \"BLOCK 1/casteo_variables.sol\":477:522  uint8 public casteo_3 = uint8(entero_16_bits) */\n  0x04\n  exp(0x0100, 0x10)\n  dup2\n  sload\n  dup2\n  0xff\n  mul\n  not\n  and\n  swap1\n  dup4\n  0xff\n  and\n  mul\n  or\n  swap1\n  sstore\n  pop\n    /* \"BLOCK 1/casteo_variables.sol\":69:534  contract CasteoVariables {\r... */\n  callvalue\n  dup1\n  iszero\n  tag_1\n  jumpi\n  0x00\n  dup1\n  revert\ntag_1:\n  pop\n  dataSize(sub_0)\n  dup1\n  dataOffset(sub_0)\n  0x00\n  codecopy\n  0x00\n  return\nstop\n\nsub_0: assembly {\n        /* \"BLOCK 1/casteo_variables.sol\":69:534  contract CasteoVariables {\r... */\n      mstore(0x40, 0x80)\n      callvalue\n      dup1\n      iszero\n      tag_1\n      jumpi\n      0x00\n      dup1\n      revert\n    tag_1:\n      pop\n      jumpi(tag_2, lt(calldatasize, 0x04))\n      shr(0xe0, calldataload(0x00))\n      dup1\n      0x02b037a7\n      eq\n      tag_3\n      jumpi\n      dup1\n      0x2b74311b\n      eq\n      tag_4\n      jumpi\n      dup1\n      0xd5d240c1\n      eq\n      tag_5\n      jumpi\n    tag_2:\n      0x00\n      dup1\n      revert\n        /* \"BLOCK 1/casteo_variables.sol\":369:415  uint64 public casteo_1 = uint64(entero_8_bits) */\n    tag_3:\n      tag_6\n      tag_7\n      jump\t// in\n    tag_6:\n      mload(0x40)\n      dup1\n      dup3\n      0xffffffffffffffff\n      and\n      dup2\n      mstore\n      0x20\n      add\n      swap2\n      pop\n      pop\n      mload(0x40)\n      dup1\n      swap2\n      sub\n      swap1\n      return\n        /* \"BLOCK 1/casteo_variables.sol\":422:470  uint64 public casteo_2 = uint64(entero_256_bits) */\n    tag_4:\n      tag_8\n      tag_9\n      jump\t// in\n    tag_8:\n      mload(0x40)\n      dup1\n      dup3\n      0xffffffffffffffff\n      and\n      dup2\n      mstore\n      0x20\n      add\n      swap2\n      pop\n      pop\n      mload(0x40)\n      dup1\n      swap2\n      sub\n      swap1\n      return\n        /* \"BLOCK 1/casteo_variables.sol\":477:522  uint8 public casteo_3 = uint8(entero_16_bits) */\n    tag_5:\n      tag_10\n      tag_11\n      jump\t// in\n    tag_10:\n      mload(0x40)\n      dup1\n      dup3\n      0xff\n      and\n      dup2\n      mstore\n      0x20\n      add\n      swap2\n      pop\n      pop\n      mload(0x40)\n      dup1\n      swap2\n      sub\n      swap1\n      return\n        /* \"BLOCK 1/casteo_variables.sol\":369:415  uint64 public casteo_1 = uint64(entero_8_bits) */\n    tag_7:\n      0x04\n      0x00\n      swap1\n      sload\n      swap1\n      0x0100\n      exp\n      swap1\n      div\n      0xffffffffffffffff\n      and\n      dup2\n      jump\t// out\n        /* \"BLOCK 1/casteo_variables.sol\":422:470  uint64 public casteo_2 = uint64(entero_256_bits) */\n    tag_9:\n      0x04\n      0x08\n      swap1\n      sload\n      swap1\n      0x0100\n      exp\n      swap1\n      div\n      0xffffffffffffffff\n      and\n      dup2\n      jump\t// out\n        /* \"BLOCK 1/casteo_variables.sol\":477:522  uint8 public casteo_3 = uint8(entero_16_bits) */\n    tag_11:\n      0x04\n      0x10\n      swap1\n      sload\n      swap1\n      0x0100\n      exp\n      swap1\n      div\n      0xff\n      and\n      dup2\n      jump\t// out\n\n    auxdata: 0xa26469706673582212200e29069a10fc6aa5eba42043d8303d550ddc2e9f08ecaef3f0ceadd32ec2300b64736f6c634300060c0033\n}\n",
				"bytecode": {
					"linkReferences": {},
					"object": "6080604052602a6000806101000a81548160ff021916908360ff16021790555061ea60600060016101000a81548167ffffffffffffffff021916908367ffffffffffffffff160217905550609c600260006101000a81548161ffff021916908360010b61ffff160217905550620dbba06002806101000a8154816effffffffffffffffffffffffffffff0219169083600e0b6effffffffffffffffffffffffffffff160217905550624c4b4060035560008054906101000a900460ff1660ff16600460006101000a81548167ffffffffffffffff021916908367ffffffffffffffff160217905550600154600460086101000a81548167ffffffffffffffff021916908367ffffffffffffffff160217905550600260009054906101000a900460010b600460106101000a81548160ff021916908360ff16021790555034801561014857600080fd5b50610129806101586000396000f3fe6080604052348015600f57600080fd5b5060043610603c5760003560e01c806302b037a71460415780632b74311b146067578063d5d240c114608d575b600080fd5b604760ac565b604051808267ffffffffffffffff16815260200191505060405180910390f35b606d60c6565b604051808267ffffffffffffffff16815260200191505060405180910390f35b609360e0565b604051808260ff16815260200191505060405180910390f35b600460009054906101000a900467ffffffffffffffff1681565b600460089054906101000a900467ffffffffffffffff1681565b600460109054906101000a900460ff168156fea26469706673582212200e29069a10fc6aa5eba42043d8303d550ddc2e9f08ecaef3f0ceadd32ec2300b64736f6c634300060c0033",
					"opcodes": "PUSH1 0x80 PUSH1 0x40 MSTORE PUSH1 0x2A PUSH1 0x0 DUP1 PUSH2 0x100 EXP DUP2 SLOAD DUP2 PUSH1 0xFF MUL NOT AND SWAP1 DUP4 PUSH1 0xFF AND MUL OR SWAP1 SSTORE POP PUSH2 0xEA60 PUSH1 0x0 PUSH1 0x1 PUSH2 0x100 EXP DUP2 SLOAD DUP2 PUSH8 0xFFFFFFFFFFFFFFFF MUL NOT AND SWAP1 DUP4 PUSH8 0xFFFFFFFFFFFFFFFF AND MUL OR SWAP1 SSTORE POP PUSH1 0x9C PUSH1 0x2 PUSH1 0x0 PUSH2 0x100 EXP DUP2 SLOAD DUP2 PUSH2 0xFFFF MUL NOT AND SWAP1 DUP4 PUSH1 0x1 SIGNEXTEND PUSH2 0xFFFF AND MUL OR SWAP1 SSTORE POP PUSH3 0xDBBA0 PUSH1 0x2 DUP1 PUSH2 0x100 EXP DUP2 SLOAD DUP2 PUSH15 0xFFFFFFFFFFFFFFFFFFFFFFFFFFFFFF MUL NOT AND SWAP1 DUP4 PUSH1 0xE SIGNEXTEND PUSH15 0xFFFFFFFFFFFFFFFFFFFFFFFFFFFFFF AND MUL OR SWAP1 SSTORE POP PUSH3 0x4C4B40 PUSH1 0x3 SSTORE PUSH1 0x0 DUP1 SLOAD SWAP1 PUSH2 0x100 EXP SWAP1 DIV PUSH1 0xFF AND PUSH1 0xFF AND PUSH1 0x4 PUSH1 0x0 PUSH2 0x100 EXP DUP2 SLOAD DUP2 PUSH8 0xFFFFFFFFFFFFFFFF MUL NOT AND SWAP1 DUP4 PUSH8 0xFFFFFFFFFFFFFFFF AND MUL OR SWAP1 SSTORE POP PUSH1 0x1 SLOAD PUSH1 0x4 PUSH1 0x8 PUSH2 0x100 EXP DUP2 SLOAD DUP2 PUSH8 0xFFFFFFFFFFFFFFFF MUL NOT AND SWAP1 DUP4 PUSH8 0xFFFFFFFFFFFFFFFF AND MUL OR SWAP1 SSTORE POP PUSH1 0x2 PUSH1 0x0 SWAP1 SLOAD SWAP1 PUSH2 0x100 EXP SWAP1 DIV PUSH1 0x1 SIGNEXTEND PUSH1 0x4 PUSH1 0x10 PUSH2 0x100 EXP DUP2 SLOAD DUP2 PUSH1 0xFF MUL NOT AND SWAP1 DUP4 PUSH1 0xFF AND MUL OR SWAP1 SSTORE POP CALLVALUE DUP1 ISZERO PUSH2 0x148 JUMPI PUSH1 0x0 DUP1 REVERT JUMPDEST POP PUSH2 0x129 DUP1 PUSH2 0x158 PUSH1 0x0 CODECOPY PUSH1 0x0 RETURN INVALID PUSH1 0x80 PUSH1 0x40 MSTORE CALLVALUE DUP1 ISZERO PUSH1 0xF JUMPI PUSH1 0x0 DUP1 REVERT JUMPDEST POP PUSH1 0x4 CALLDATASIZE LT PUSH1 0x3C JUMPI PUSH1 0x0 CALLDATALOAD PUSH1 0xE0 SHR DUP1 PUSH4 0x2B037A7 EQ PUSH1 0x41 JUMPI DUP1 PUSH4 0x2B74311B EQ PUSH1 0x67 JUMPI DUP1 PUSH4 0xD5D240C1 EQ PUSH1 0x8D JUMPI JUMPDEST PUSH1 0x0 DUP1 REVERT JUMPDEST PUSH1 0x47 PUSH1 0xAC JUMP JUMPDEST PUSH1 0x40 MLOAD DUP1 DUP3 PUSH8 0xFFFFFFFFFFFFFFFF AND DUP2 MSTORE PUSH1 0x20 ADD SWAP2 POP POP PUSH1 0x40 MLOAD DUP1 SWAP2 SUB SWAP1 RETURN JUMPDEST PUSH1 0x6D PUSH1 0xC6 JUMP JUMPDEST PUSH1 0x40 MLOAD DUP1 DUP3 PUSH8 0xFFFFFFFFFFFFFFFF AND DUP2 MSTORE PUSH1 0x20 ADD SWAP2 POP POP PUSH1 0x40 MLOAD DUP1 SWAP2 SUB SWAP1 RETURN JUMPDEST PUSH1 0x93 PUSH1 0xE0 JUMP JUMPDEST PUSH1 0x40 MLOAD DUP1 DUP3 PUSH1 0xFF AND DUP2 MSTORE PUSH1 0x20 ADD SWAP2 POP POP PUSH1 0x40 MLOAD DUP1 SWAP2 SUB SWAP1 RETURN JUMPDEST PUSH1 0x4 PUSH1 0x0 SWAP1 SLOAD SWAP1 PUSH2 0x100 EXP SWAP1 DIV PUSH8 0xFFFFFFFFFFFFFFFF AND DUP2 JUMP JUMPDEST PUSH1 0x4 PUSH1 0x8 SWAP1 SLOAD SWAP1 PUSH2 0x100 EXP SWAP1 DIV PUSH8 0xFFFFFFFFFFFFFFFF AND DUP2 JUMP JUMPDEST PUSH1 0x4 PUSH1 0x10 SWAP1 SLOAD SWAP1 PUSH2 0x100 EXP SWAP1 DIV PUSH1 0xFF AND DUP2 JUMP INVALID LOG2 PUSH5 0x6970667358 0x22 SLT KECCAK256 0xE 0x29 MOD SWAP11 LT 0xFC PUSH11 0xA5EBA42043D8303D550DDC 0x2E SWAP16 ADDMOD 0xEC 0xAE RETURN CREATE 0xCE 0xAD 0xD3 0x2E 0xC2 ADDRESS SIGNEXTEND PUSH5 0x736F6C6343 STOP MOD 0xC STOP CALLER "
				},
				"gasEstimates": {
					"creation": {
						"codeDepositCost": "59400",
						"executionCost": "168879",
						"totalCost": "228279"
					},
					"external": {
						"casteo_1()": "1025",
						"casteo_2()": "1097",
						"casteo_3()": "1119"
					}
				},
				"methodIdentifiers": {
					"casteo_1()": "02b037a7",
					"casteo_2()": "2b74311b",
					"casteo_3()": "d5d240c1"
				}
			},
			"storageLayout": {
				"storage": [
					{
						"astId": 4,
						"contract": "BLOCK 1/casteo_variables.sol:CasteoVariables",
						"label": "entero_8_bits",
						"offset": 0,
						"slot": "0",
						"type": "t_uint8"
					},
					{
						"astId": 7,
						"contract": "BLOCK 1/casteo_variables.sol:CasteoVariables",
						"label": "entero_64_bits",
						"offset": 1,
						"slot": "0",
						"type": "t_uint64"
					},
					{
						"astId": 9,
						"contract": "BLOCK 1/casteo_variables.sol:CasteoVariables",
						"label": "entero_256_bits",
						"offset": 0,
						"slot": "1",
						"type": "t_uint256"
					},
					{
						"astId": 12,
						"contract": "BLOCK 1/casteo_variables.sol:CasteoVariables",
						"label": "entero_16_bits",
						"offset": 0,
						"slot": "2",
						"type": "t_int16"
					},
					{
						"astId": 15,
						"contract": "BLOCK 1/casteo_variables.sol:CasteoVariables",
						"label": "entero_120_bits",
						"offset": 2,
						"slot": "2",
						"type": "t_int120"
					},
					{
						"astId": 18,
						"contract": "BLOCK 1/casteo_variables.sol:CasteoVariables",
						"label": "entero",
						"offset": 0,
						"slot": "3",
						"type": "t_int256"
					},
					{
						"astId": 24,
						"contract": "BLOCK 1/casteo_variables.sol:CasteoVariables",
						"label": "casteo_1",
						"offset": 0,
						"slot": "4",
						"type": "t_uint64"
					},
					{
						"astId": 30,
						"contract": "BLOCK 1/casteo_variables.sol:CasteoVariables",
						"label": "casteo_2",
						"offset": 8,
						"slot": "4",
						"type": "t_uint64"
					},
					{
						"astId": 36,
						"contract": "BLOCK 1/casteo_variables.sol:CasteoVariables",
						"label": "casteo_3",
						"offset": 16,
						"slot": "4",
						"type": "t_uint8"
					}
				],
				"types": {
					"t_int120": {
						"encoding": "inplace",
						"label": "int120",
						"numberOfBytes": "15"
					},
					"t_int16": {
						"encoding": "inplace",
						"label": "int16",
						"numberOfBytes": "2"
					},
					"t_int256": {
						"encoding": "inplace",
						"label": "int256",
						"numberOfBytes": "32"
					},
					"t_uint256": {
						"encoding": "inplace",
						"label": "uint256",
						"numberOfBytes": "32"
					},
					"t_uint64": {
						"encoding": "inplace",
						"label": "uint64",
						"numberOfBytes": "8"
					},
					"t_uint8": {
						"encoding": "inplace",
						"label": "uint8",
						"numberOfBytes": "1"
					}
				}
			},
			"userdoc": {
				"kind": "user",
				"methods": {},
				"version": 1
			}
		}
	}
}