{
	"BLOCK 1/keccak.sol": {
		"Hash": {
			"abi": [
				{
					"inputs": [
						{
							"internalType": "string",
							"name": "_cadena",
							"type": "string"
						}
					],
					"name": "calcularHash",
					"outputs": [
						{
							"internalType": "bytes32",
							"name": "",
							"type": "bytes32"
						}
					],
					"stateMutability": "pure",
					"type": "function"
				},
				{
					"inputs": [
						{
							"internalType": "string",
							"name": "_cadena",
							"type": "string"
						},
						{
							"internalType": "uint256",
							"name": "_k",
							"type": "uint256"
						},
						{
							"internalType": "address",
							"name": "_direccion",
							"type": "address"
						}
					],
					"name": "calcularHash2",
					"outputs": [
						{
							"internalType": "bytes32",
							"name": "",
							"type": "bytes32"
						}
					],
					"stateMutability": "pure",
					"type": "function"
				},
				{
					"inputs": [
						{
							"internalType": "string",
							"name": "_cadena",
							"type": "string"
						},
						{
							"internalType": "uint256",
							"name": "_k",
							"type": "uint256"
						},
						{
							"internalType": "address",
							"name": "_direccion",
							"type": "address"
						}
					],
					"name": "calcularHash3",
					"outputs": [
						{
							"internalType": "bytes32",
							"name": "",
							"type": "bytes32"
						}
					],
					"stateMutability": "pure",
					"type": "function"
				}
			],
			"devdoc": {
				"kind": "dev",
				"methods": {},
				"version": 1
			},
			"evm": {
				"assembly": "    /* \"BLOCK 1/keccak.sol\":104:667  contract Hash {\r... */\n  mstore(0x40, 0x80)\n  callvalue\n  dup1\n  iszero\n  tag_1\n  jumpi\n  0x00\n  dup1\n  revert\ntag_1:\n  pop\n  dataSize(sub_0)\n  dup1\n  dataOffset(sub_0)\n  0x00\n  codecopy\n  0x00\n  return\nstop\n\nsub_0: assembly {\n        /* \"BLOCK 1/keccak.sol\":104:667  contract Hash {\r... */\n      mstore(0x40, 0x80)\n      callvalue\n      dup1\n      iszero\n      tag_1\n      jumpi\n      0x00\n      dup1\n      revert\n    tag_1:\n      pop\n      jumpi(tag_2, lt(calldatasize, 0x04))\n      shr(0xe0, calldataload(0x00))\n      dup1\n      0x3d76e909\n      eq\n      tag_3\n      jumpi\n      dup1\n      0x52de28e8\n      eq\n      tag_4\n      jumpi\n      dup1\n      0xda100b1d\n      eq\n      tag_5\n      jumpi\n    tag_2:\n      0x00\n      dup1\n      revert\n        /* \"BLOCK 1/keccak.sol\":127:263  function calcularHash(string memory _cadena) pure  public returns(bytes32){\r... */\n    tag_3:\n      tag_6\n      0x04\n      dup1\n      calldatasize\n      sub\n      dup2\n      add\n      swap1\n      tag_7\n      swap2\n      swap1\n      tag_8\n      jump\t// in\n    tag_7:\n      tag_9\n      jump\t// in\n    tag_6:\n      mload(0x40)\n      tag_10\n      swap2\n      swap1\n      tag_11\n      jump\t// in\n    tag_10:\n      mload(0x40)\n      dup1\n      swap2\n      sub\n      swap1\n      return\n        /* \"BLOCK 1/keccak.sol\":461:662  function calcularHash3(string memory _cadena, uint _k, address _direccion) pure  public returns(bytes32){\r... */\n    tag_4:\n      tag_12\n      0x04\n      dup1\n      calldatasize\n      sub\n      dup2\n      add\n      swap1\n      tag_13\n      swap2\n      swap1\n      tag_14\n      jump\t// in\n    tag_13:\n      tag_15\n      jump\t// in\n    tag_12:\n      mload(0x40)\n      tag_16\n      swap2\n      swap1\n      tag_11\n      jump\t// in\n    tag_16:\n      mload(0x40)\n      dup1\n      swap2\n      sub\n      swap1\n      return\n        /* \"BLOCK 1/keccak.sol\":271:453  function calcularHash2(string memory _cadena, uint _k, address _direccion) pure  public returns(bytes32){\r... */\n    tag_5:\n      tag_17\n      0x04\n      dup1\n      calldatasize\n      sub\n      dup2\n      add\n      swap1\n      tag_18\n      swap2\n      swap1\n      tag_14\n      jump\t// in\n    tag_18:\n      tag_19\n      jump\t// in\n    tag_17:\n      mload(0x40)\n      tag_20\n      swap2\n      swap1\n      tag_11\n      jump\t// in\n    tag_20:\n      mload(0x40)\n      dup1\n      swap2\n      sub\n      swap1\n      return\n        /* \"BLOCK 1/keccak.sol\":127:263  function calcularHash(string memory _cadena) pure  public returns(bytes32){\r... */\n    tag_9:\n        /* \"BLOCK 1/keccak.sol\":193:200  bytes32 */\n      0x00\n        /* \"BLOCK 1/keccak.sol\":246:253  _cadena */\n      dup2\n        /* \"BLOCK 1/keccak.sol\":229:254  abi.encodePacked(_cadena) */\n      add(0x20, mload(0x40))\n      tag_22\n      swap2\n      swap1\n      tag_23\n      jump\t// in\n    tag_22:\n      mload(0x40)\n      0x20\n      dup2\n      dup4\n      sub\n      sub\n      dup2\n      mstore\n      swap1\n      0x40\n      mstore\n        /* \"BLOCK 1/keccak.sol\":219:255  keccak256(abi.encodePacked(_cadena)) */\n      dup1\n      mload\n      swap1\n      0x20\n      add\n      keccak256\n        /* \"BLOCK 1/keccak.sol\":212:255  return keccak256(abi.encodePacked(_cadena)) */\n      swap1\n      pop\n        /* \"BLOCK 1/keccak.sol\":127:263  function calcularHash(string memory _cadena) pure  public returns(bytes32){\r... */\n      swap2\n      swap1\n      pop\n      jump\t// out\n        /* \"BLOCK 1/keccak.sol\":461:662  function calcularHash3(string memory _cadena, uint _k, address _direccion) pure  public returns(bytes32){\r... */\n    tag_15:\n        /* \"BLOCK 1/keccak.sol\":557:564  bytes32 */\n      0x00\n        /* \"BLOCK 1/keccak.sol\":612:619  _cadena */\n      dup4\n        /* \"BLOCK 1/keccak.sol\":621:623  _k */\n      dup4\n        /* \"BLOCK 1/keccak.sol\":625:635  _direccion */\n      dup4\n        /* \"BLOCK 1/keccak.sol\":650:651  1 */\n      0x01\n        /* \"BLOCK 1/keccak.sol\":595:653  abi.encodePacked(_cadena, _k, _direccion, \"hola\", uint(1)) */\n      add(0x20, mload(0x40))\n      tag_25\n      swap5\n      swap4\n      swap3\n      swap2\n      swap1\n      tag_26\n      jump\t// in\n    tag_25:\n      mload(0x40)\n      0x20\n      dup2\n      dup4\n      sub\n      sub\n      dup2\n      mstore\n      swap1\n      0x40\n      mstore\n        /* \"BLOCK 1/keccak.sol\":585:654  keccak256(abi.encodePacked(_cadena, _k, _direccion, \"hola\", uint(1))) */\n      dup1\n      mload\n      swap1\n      0x20\n      add\n      keccak256\n        /* \"BLOCK 1/keccak.sol\":578:654  return keccak256(abi.encodePacked(_cadena, _k, _direccion, \"hola\", uint(1))) */\n      swap1\n      pop\n        /* \"BLOCK 1/keccak.sol\":461:662  function calcularHash3(string memory _cadena, uint _k, address _direccion) pure  public returns(bytes32){\r... */\n      swap4\n      swap3\n      pop\n      pop\n      pop\n      jump\t// out\n        /* \"BLOCK 1/keccak.sol\":271:453  function calcularHash2(string memory _cadena, uint _k, address _direccion) pure  public returns(bytes32){\r... */\n    tag_19:\n        /* \"BLOCK 1/keccak.sol\":367:374  bytes32 */\n      0x00\n        /* \"BLOCK 1/keccak.sol\":420:427  _cadena */\n      dup4\n        /* \"BLOCK 1/keccak.sol\":429:431  _k */\n      dup4\n        /* \"BLOCK 1/keccak.sol\":433:443  _direccion */\n      dup4\n        /* \"BLOCK 1/keccak.sol\":403:444  abi.encodePacked(_cadena, _k, _direccion) */\n      add(0x20, mload(0x40))\n      tag_28\n      swap4\n      swap3\n      swap2\n      swap1\n      tag_29\n      jump\t// in\n    tag_28:\n      mload(0x40)\n      0x20\n      dup2\n      dup4\n      sub\n      sub\n      dup2\n      mstore\n      swap1\n      0x40\n      mstore\n        /* \"BLOCK 1/keccak.sol\":393:445  keccak256(abi.encodePacked(_cadena, _k, _direccion)) */\n      dup1\n      mload\n      swap1\n      0x20\n      add\n      keccak256\n        /* \"BLOCK 1/keccak.sol\":386:445  return keccak256(abi.encodePacked(_cadena, _k, _direccion)) */\n      swap1\n      pop\n        /* \"BLOCK 1/keccak.sol\":271:453  function calcularHash2(string memory _cadena, uint _k, address _direccion) pure  public returns(bytes32){\r... */\n      swap4\n      swap3\n      pop\n      pop\n      pop\n      jump\t// out\n        /* \"--CODEGEN--\":5:135   */\n    tag_31:\n      0x00\n        /* \"--CODEGEN--\":85:91   */\n      dup2\n        /* \"--CODEGEN--\":72:92   */\n      calldataload\n        /* \"--CODEGEN--\":63:92   */\n      swap1\n      pop\n        /* \"--CODEGEN--\":97:130   */\n      tag_33\n        /* \"--CODEGEN--\":124:129   */\n      dup2\n        /* \"--CODEGEN--\":97:130   */\n      tag_34\n      jump\t// in\n    tag_33:\n        /* \"--CODEGEN--\":57:135   */\n      swap3\n      swap2\n      pop\n      pop\n      jump\t// out\n        /* \"--CODEGEN--\":143:585   */\n    tag_35:\n      0x00\n        /* \"--CODEGEN--\":245:248   */\n      dup3\n        /* \"--CODEGEN--\":238:242   */\n      0x1f\n        /* \"--CODEGEN--\":230:236   */\n      dup4\n        /* \"--CODEGEN--\":226:243   */\n      add\n        /* \"--CODEGEN--\":222:249   */\n      slt\n        /* \"--CODEGEN--\":212:214   */\n      tag_37\n      jumpi\n        /* \"--CODEGEN--\":263:264   */\n      0x00\n        /* \"--CODEGEN--\":260:261   */\n      dup1\n        /* \"--CODEGEN--\":253:265   */\n      revert\n        /* \"--CODEGEN--\":212:214   */\n    tag_37:\n        /* \"--CODEGEN--\":300:306   */\n      dup2\n        /* \"--CODEGEN--\":287:307   */\n      calldataload\n        /* \"--CODEGEN--\":322:387   */\n      tag_38\n        /* \"--CODEGEN--\":337:386   */\n      tag_39\n        /* \"--CODEGEN--\":379:385   */\n      dup3\n        /* \"--CODEGEN--\":337:386   */\n      tag_40\n      jump\t// in\n    tag_39:\n        /* \"--CODEGEN--\":322:387   */\n      tag_41\n      jump\t// in\n    tag_38:\n        /* \"--CODEGEN--\":313:387   */\n      swap2\n      pop\n        /* \"--CODEGEN--\":407:413   */\n      dup1\n        /* \"--CODEGEN--\":400:405   */\n      dup3\n        /* \"--CODEGEN--\":393:414   */\n      mstore\n        /* \"--CODEGEN--\":443:447   */\n      0x20\n        /* \"--CODEGEN--\":435:441   */\n      dup4\n        /* \"--CODEGEN--\":431:448   */\n      add\n        /* \"--CODEGEN--\":476:480   */\n      0x20\n        /* \"--CODEGEN--\":469:474   */\n      dup4\n        /* \"--CODEGEN--\":465:481   */\n      add\n        /* \"--CODEGEN--\":511:514   */\n      dup6\n        /* \"--CODEGEN--\":502:508   */\n      dup4\n        /* \"--CODEGEN--\":497:500   */\n      dup4\n        /* \"--CODEGEN--\":493:509   */\n      add\n        /* \"--CODEGEN--\":490:515   */\n      gt\n        /* \"--CODEGEN--\":487:489   */\n      iszero\n      tag_42\n      jumpi\n        /* \"--CODEGEN--\":528:529   */\n      0x00\n        /* \"--CODEGEN--\":525:526   */\n      dup1\n        /* \"--CODEGEN--\":518:530   */\n      revert\n        /* \"--CODEGEN--\":487:489   */\n    tag_42:\n        /* \"--CODEGEN--\":538:579   */\n      tag_43\n        /* \"--CODEGEN--\":572:578   */\n      dup4\n        /* \"--CODEGEN--\":567:570   */\n      dup3\n        /* \"--CODEGEN--\":562:565   */\n      dup5\n        /* \"--CODEGEN--\":538:579   */\n      tag_44\n      jump\t// in\n    tag_43:\n        /* \"--CODEGEN--\":205:585   */\n      pop\n      pop\n      pop\n      swap3\n      swap2\n      pop\n      pop\n      jump\t// out\n        /* \"--CODEGEN--\":593:723   */\n    tag_45:\n      0x00\n        /* \"--CODEGEN--\":673:679   */\n      dup2\n        /* \"--CODEGEN--\":660:680   */\n      calldataload\n        /* \"--CODEGEN--\":651:680   */\n      swap1\n      pop\n        /* \"--CODEGEN--\":685:718   */\n      tag_47\n        /* \"--CODEGEN--\":712:717   */\n      dup2\n        /* \"--CODEGEN--\":685:718   */\n      tag_48\n      jump\t// in\n    tag_47:\n        /* \"--CODEGEN--\":645:723   */\n      swap3\n      swap2\n      pop\n      pop\n      jump\t// out\n        /* \"--CODEGEN--\":730:1077   */\n    tag_8:\n      0x00\n        /* \"--CODEGEN--\":844:846   */\n      0x20\n        /* \"--CODEGEN--\":832:841   */\n      dup3\n        /* \"--CODEGEN--\":823:830   */\n      dup5\n        /* \"--CODEGEN--\":819:842   */\n      sub\n        /* \"--CODEGEN--\":815:847   */\n      slt\n        /* \"--CODEGEN--\":812:814   */\n      iszero\n      tag_50\n      jumpi\n        /* \"--CODEGEN--\":860:861   */\n      0x00\n        /* \"--CODEGEN--\":857:858   */\n      dup1\n        /* \"--CODEGEN--\":850:862   */\n      revert\n        /* \"--CODEGEN--\":812:814   */\n    tag_50:\n        /* \"--CODEGEN--\":923:924   */\n      0x00\n        /* \"--CODEGEN--\":912:921   */\n      dup3\n        /* \"--CODEGEN--\":908:925   */\n      add\n        /* \"--CODEGEN--\":895:926   */\n      calldataload\n        /* \"--CODEGEN--\":946:964   */\n      0xffffffffffffffff\n        /* \"--CODEGEN--\":938:944   */\n      dup2\n        /* \"--CODEGEN--\":935:965   */\n      gt\n        /* \"--CODEGEN--\":932:934   */\n      iszero\n      tag_51\n      jumpi\n        /* \"--CODEGEN--\":978:979   */\n      0x00\n        /* \"--CODEGEN--\":975:976   */\n      dup1\n        /* \"--CODEGEN--\":968:980   */\n      revert\n        /* \"--CODEGEN--\":932:934   */\n    tag_51:\n        /* \"--CODEGEN--\":998:1061   */\n      tag_52\n        /* \"--CODEGEN--\":1053:1060   */\n      dup5\n        /* \"--CODEGEN--\":1044:1050   */\n      dup3\n        /* \"--CODEGEN--\":1033:1042   */\n      dup6\n        /* \"--CODEGEN--\":1029:1051   */\n      add\n        /* \"--CODEGEN--\":998:1061   */\n      tag_35\n      jump\t// in\n    tag_52:\n        /* \"--CODEGEN--\":988:1061   */\n      swap2\n      pop\n        /* \"--CODEGEN--\":874:1067   */\n      pop\n        /* \"--CODEGEN--\":806:1077   */\n      swap3\n      swap2\n      pop\n      pop\n      jump\t// out\n        /* \"--CODEGEN--\":1084:1681   */\n    tag_14:\n      0x00\n      dup1\n      0x00\n        /* \"--CODEGEN--\":1232:1234   */\n      0x60\n        /* \"--CODEGEN--\":1220:1229   */\n      dup5\n        /* \"--CODEGEN--\":1211:1218   */\n      dup7\n        /* \"--CODEGEN--\":1207:1230   */\n      sub\n        /* \"--CODEGEN--\":1203:1235   */\n      slt\n        /* \"--CODEGEN--\":1200:1202   */\n      iszero\n      tag_54\n      jumpi\n        /* \"--CODEGEN--\":1248:1249   */\n      0x00\n        /* \"--CODEGEN--\":1245:1246   */\n      dup1\n        /* \"--CODEGEN--\":1238:1250   */\n      revert\n        /* \"--CODEGEN--\":1200:1202   */\n    tag_54:\n        /* \"--CODEGEN--\":1311:1312   */\n      0x00\n        /* \"--CODEGEN--\":1300:1309   */\n      dup5\n        /* \"--CODEGEN--\":1296:1313   */\n      add\n        /* \"--CODEGEN--\":1283:1314   */\n      calldataload\n        /* \"--CODEGEN--\":1334:1352   */\n      0xffffffffffffffff\n        /* \"--CODEGEN--\":1326:1332   */\n      dup2\n        /* \"--CODEGEN--\":1323:1353   */\n      gt\n        /* \"--CODEGEN--\":1320:1322   */\n      iszero\n      tag_55\n      jumpi\n        /* \"--CODEGEN--\":1366:1367   */\n      0x00\n        /* \"--CODEGEN--\":1363:1364   */\n      dup1\n        /* \"--CODEGEN--\":1356:1368   */\n      revert\n        /* \"--CODEGEN--\":1320:1322   */\n    tag_55:\n        /* \"--CODEGEN--\":1386:1449   */\n      tag_56\n        /* \"--CODEGEN--\":1441:1448   */\n      dup7\n        /* \"--CODEGEN--\":1432:1438   */\n      dup3\n        /* \"--CODEGEN--\":1421:1430   */\n      dup8\n        /* \"--CODEGEN--\":1417:1439   */\n      add\n        /* \"--CODEGEN--\":1386:1449   */\n      tag_35\n      jump\t// in\n    tag_56:\n        /* \"--CODEGEN--\":1376:1449   */\n      swap4\n      pop\n        /* \"--CODEGEN--\":1262:1455   */\n      pop\n        /* \"--CODEGEN--\":1486:1488   */\n      0x20\n        /* \"--CODEGEN--\":1504:1557   */\n      tag_57\n        /* \"--CODEGEN--\":1549:1556   */\n      dup7\n        /* \"--CODEGEN--\":1540:1546   */\n      dup3\n        /* \"--CODEGEN--\":1529:1538   */\n      dup8\n        /* \"--CODEGEN--\":1525:1547   */\n      add\n        /* \"--CODEGEN--\":1504:1557   */\n      tag_45\n      jump\t// in\n    tag_57:\n        /* \"--CODEGEN--\":1494:1557   */\n      swap3\n      pop\n        /* \"--CODEGEN--\":1465:1563   */\n      pop\n        /* \"--CODEGEN--\":1594:1596   */\n      0x40\n        /* \"--CODEGEN--\":1612:1665   */\n      tag_58\n        /* \"--CODEGEN--\":1657:1664   */\n      dup7\n        /* \"--CODEGEN--\":1648:1654   */\n      dup3\n        /* \"--CODEGEN--\":1637:1646   */\n      dup8\n        /* \"--CODEGEN--\":1633:1655   */\n      add\n        /* \"--CODEGEN--\":1612:1665   */\n      tag_31\n      jump\t// in\n    tag_58:\n        /* \"--CODEGEN--\":1602:1665   */\n      swap2\n      pop\n        /* \"--CODEGEN--\":1573:1671   */\n      pop\n        /* \"--CODEGEN--\":1194:1681   */\n      swap3\n      pop\n      swap3\n      pop\n      swap3\n      jump\t// out\n        /* \"--CODEGEN--\":1688:1840   */\n    tag_59:\n        /* \"--CODEGEN--\":1789:1834   */\n      tag_61\n        /* \"--CODEGEN--\":1809:1833   */\n      tag_62\n        /* \"--CODEGEN--\":1827:1832   */\n      dup3\n        /* \"--CODEGEN--\":1809:1833   */\n      tag_63\n      jump\t// in\n    tag_62:\n        /* \"--CODEGEN--\":1789:1834   */\n      tag_64\n      jump\t// in\n    tag_61:\n        /* \"--CODEGEN--\":1784:1787   */\n      dup3\n        /* \"--CODEGEN--\":1777:1835   */\n      mstore\n        /* \"--CODEGEN--\":1771:1840   */\n      pop\n      pop\n      jump\t// out\n        /* \"--CODEGEN--\":1847:1960   */\n    tag_65:\n        /* \"--CODEGEN--\":1930:1954   */\n      tag_67\n        /* \"--CODEGEN--\":1948:1953   */\n      dup2\n        /* \"--CODEGEN--\":1930:1954   */\n      tag_68\n      jump\t// in\n    tag_67:\n        /* \"--CODEGEN--\":1925:1928   */\n      dup3\n        /* \"--CODEGEN--\":1918:1955   */\n      mstore\n        /* \"--CODEGEN--\":1912:1960   */\n      pop\n      pop\n      jump\t// out\n        /* \"--CODEGEN--\":1967:2327   */\n    tag_69:\n      0x00\n        /* \"--CODEGEN--\":2097:2136   */\n      tag_71\n        /* \"--CODEGEN--\":2130:2135   */\n      dup3\n        /* \"--CODEGEN--\":2097:2136   */\n      tag_72\n      jump\t// in\n    tag_71:\n        /* \"--CODEGEN--\":2148:2237   */\n      tag_73\n        /* \"--CODEGEN--\":2230:2236   */\n      dup2\n        /* \"--CODEGEN--\":2225:2228   */\n      dup6\n        /* \"--CODEGEN--\":2148:2237   */\n      tag_74\n      jump\t// in\n    tag_73:\n        /* \"--CODEGEN--\":2141:2237   */\n      swap4\n      pop\n        /* \"--CODEGEN--\":2242:2294   */\n      tag_75\n        /* \"--CODEGEN--\":2287:2293   */\n      dup2\n        /* \"--CODEGEN--\":2282:2285   */\n      dup6\n        /* \"--CODEGEN--\":2275:2279   */\n      0x20\n        /* \"--CODEGEN--\":2268:2273   */\n      dup7\n        /* \"--CODEGEN--\":2264:2280   */\n      add\n        /* \"--CODEGEN--\":2242:2294   */\n      tag_76\n      jump\t// in\n    tag_75:\n        /* \"--CODEGEN--\":2315:2321   */\n      dup1\n        /* \"--CODEGEN--\":2310:2313   */\n      dup5\n        /* \"--CODEGEN--\":2306:2322   */\n      add\n        /* \"--CODEGEN--\":2299:2322   */\n      swap2\n      pop\n        /* \"--CODEGEN--\":2077:2327   */\n      pop\n      swap3\n      swap2\n      pop\n      pop\n      jump\t// out\n        /* \"--CODEGEN--\":2335:2673   */\n    tag_77:\n      0x00\n        /* \"--CODEGEN--\":2513:2597   */\n      tag_79\n        /* \"--CODEGEN--\":2595:2596   */\n      0x04\n        /* \"--CODEGEN--\":2590:2593   */\n      dup4\n        /* \"--CODEGEN--\":2513:2597   */\n      tag_74\n      jump\t// in\n    tag_79:\n        /* \"--CODEGEN--\":2506:2597   */\n      swap2\n      pop\n        /* \"--CODEGEN--\":2630:2636   */\n      0x686f6c6100000000000000000000000000000000000000000000000000000000\n        /* \"--CODEGEN--\":2626:2627   */\n      0x00\n        /* \"--CODEGEN--\":2621:2624   */\n      dup4\n        /* \"--CODEGEN--\":2617:2628   */\n      add\n        /* \"--CODEGEN--\":2610:2637   */\n      mstore\n        /* \"--CODEGEN--\":2665:2666   */\n      0x04\n        /* \"--CODEGEN--\":2660:2663   */\n      dup3\n        /* \"--CODEGEN--\":2656:2667   */\n      add\n        /* \"--CODEGEN--\":2649:2667   */\n      swap1\n      pop\n        /* \"--CODEGEN--\":2499:2673   */\n      swap2\n      swap1\n      pop\n      jump\t// out\n        /* \"--CODEGEN--\":2681:2833   */\n    tag_80:\n        /* \"--CODEGEN--\":2782:2827   */\n      tag_82\n        /* \"--CODEGEN--\":2802:2826   */\n      tag_83\n        /* \"--CODEGEN--\":2820:2825   */\n      dup3\n        /* \"--CODEGEN--\":2802:2826   */\n      tag_84\n      jump\t// in\n    tag_83:\n        /* \"--CODEGEN--\":2782:2827   */\n      tag_85\n      jump\t// in\n    tag_82:\n        /* \"--CODEGEN--\":2777:2780   */\n      dup3\n        /* \"--CODEGEN--\":2770:2828   */\n      mstore\n        /* \"--CODEGEN--\":2764:2833   */\n      pop\n      pop\n      jump\t// out\n        /* \"--CODEGEN--\":2840:3115   */\n    tag_23:\n      0x00\n        /* \"--CODEGEN--\":2995:3090   */\n      tag_87\n        /* \"--CODEGEN--\":3086:3089   */\n      dup3\n        /* \"--CODEGEN--\":3077:3083   */\n      dup5\n        /* \"--CODEGEN--\":2995:3090   */\n      tag_69\n      jump\t// in\n    tag_87:\n        /* \"--CODEGEN--\":2988:3090   */\n      swap2\n      pop\n        /* \"--CODEGEN--\":3107:3110   */\n      dup2\n        /* \"--CODEGEN--\":3100:3110   */\n      swap1\n      pop\n        /* \"--CODEGEN--\":2976:3115   */\n      swap3\n      swap2\n      pop\n      pop\n      jump\t// out\n        /* \"--CODEGEN--\":3122:3675   */\n    tag_29:\n      0x00\n        /* \"--CODEGEN--\":3333:3428   */\n      tag_89\n        /* \"--CODEGEN--\":3424:3427   */\n      dup3\n        /* \"--CODEGEN--\":3415:3421   */\n      dup7\n        /* \"--CODEGEN--\":3333:3428   */\n      tag_69\n      jump\t// in\n    tag_89:\n        /* \"--CODEGEN--\":3326:3428   */\n      swap2\n      pop\n        /* \"--CODEGEN--\":3439:3514   */\n      tag_90\n        /* \"--CODEGEN--\":3510:3513   */\n      dup3\n        /* \"--CODEGEN--\":3501:3507   */\n      dup6\n        /* \"--CODEGEN--\":3439:3514   */\n      tag_80\n      jump\t// in\n    tag_90:\n        /* \"--CODEGEN--\":3536:3538   */\n      0x20\n        /* \"--CODEGEN--\":3531:3534   */\n      dup3\n        /* \"--CODEGEN--\":3527:3539   */\n      add\n        /* \"--CODEGEN--\":3520:3539   */\n      swap2\n      pop\n        /* \"--CODEGEN--\":3550:3625   */\n      tag_91\n        /* \"--CODEGEN--\":3621:3624   */\n      dup3\n        /* \"--CODEGEN--\":3612:3618   */\n      dup5\n        /* \"--CODEGEN--\":3550:3625   */\n      tag_59\n      jump\t// in\n    tag_91:\n        /* \"--CODEGEN--\":3647:3649   */\n      0x14\n        /* \"--CODEGEN--\":3642:3645   */\n      dup3\n        /* \"--CODEGEN--\":3638:3650   */\n      add\n        /* \"--CODEGEN--\":3631:3650   */\n      swap2\n      pop\n        /* \"--CODEGEN--\":3667:3670   */\n      dup2\n        /* \"--CODEGEN--\":3660:3670   */\n      swap1\n      pop\n        /* \"--CODEGEN--\":3314:3675   */\n      swap5\n      swap4\n      pop\n      pop\n      pop\n      pop\n      jump\t// out\n        /* \"--CODEGEN--\":3682:4641   */\n    tag_26:\n      0x00\n        /* \"--CODEGEN--\":4022:4117   */\n      tag_93\n        /* \"--CODEGEN--\":4113:4116   */\n      dup3\n        /* \"--CODEGEN--\":4104:4110   */\n      dup8\n        /* \"--CODEGEN--\":4022:4117   */\n      tag_69\n      jump\t// in\n    tag_93:\n        /* \"--CODEGEN--\":4015:4117   */\n      swap2\n      pop\n        /* \"--CODEGEN--\":4128:4203   */\n      tag_94\n        /* \"--CODEGEN--\":4199:4202   */\n      dup3\n        /* \"--CODEGEN--\":4190:4196   */\n      dup7\n        /* \"--CODEGEN--\":4128:4203   */\n      tag_80\n      jump\t// in\n    tag_94:\n        /* \"--CODEGEN--\":4225:4227   */\n      0x20\n        /* \"--CODEGEN--\":4220:4223   */\n      dup3\n        /* \"--CODEGEN--\":4216:4228   */\n      add\n        /* \"--CODEGEN--\":4209:4228   */\n      swap2\n      pop\n        /* \"--CODEGEN--\":4239:4314   */\n      tag_95\n        /* \"--CODEGEN--\":4310:4313   */\n      dup3\n        /* \"--CODEGEN--\":4301:4307   */\n      dup6\n        /* \"--CODEGEN--\":4239:4314   */\n      tag_59\n      jump\t// in\n    tag_95:\n        /* \"--CODEGEN--\":4336:4338   */\n      0x14\n        /* \"--CODEGEN--\":4331:4334   */\n      dup3\n        /* \"--CODEGEN--\":4327:4339   */\n      add\n        /* \"--CODEGEN--\":4320:4339   */\n      swap2\n      pop\n        /* \"--CODEGEN--\":4357:4505   */\n      tag_96\n        /* \"--CODEGEN--\":4501:4504   */\n      dup3\n        /* \"--CODEGEN--\":4357:4505   */\n      tag_77\n      jump\t// in\n    tag_96:\n        /* \"--CODEGEN--\":4350:4505   */\n      swap2\n      pop\n        /* \"--CODEGEN--\":4516:4591   */\n      tag_97\n        /* \"--CODEGEN--\":4587:4590   */\n      dup3\n        /* \"--CODEGEN--\":4578:4584   */\n      dup5\n        /* \"--CODEGEN--\":4516:4591   */\n      tag_80\n      jump\t// in\n    tag_97:\n        /* \"--CODEGEN--\":4613:4615   */\n      0x20\n        /* \"--CODEGEN--\":4608:4611   */\n      dup3\n        /* \"--CODEGEN--\":4604:4616   */\n      add\n        /* \"--CODEGEN--\":4597:4616   */\n      swap2\n      pop\n        /* \"--CODEGEN--\":4633:4636   */\n      dup2\n        /* \"--CODEGEN--\":4626:4636   */\n      swap1\n      pop\n        /* \"--CODEGEN--\":4003:4641   */\n      swap6\n      swap5\n      pop\n      pop\n      pop\n      pop\n      pop\n      jump\t// out\n        /* \"--CODEGEN--\":4648:4870   */\n    tag_11:\n      0x00\n        /* \"--CODEGEN--\":4775:4777   */\n      0x20\n        /* \"--CODEGEN--\":4764:4773   */\n      dup3\n        /* \"--CODEGEN--\":4760:4778   */\n      add\n        /* \"--CODEGEN--\":4752:4778   */\n      swap1\n      pop\n        /* \"--CODEGEN--\":4789:4860   */\n      tag_99\n        /* \"--CODEGEN--\":4857:4858   */\n      0x00\n        /* \"--CODEGEN--\":4846:4855   */\n      dup4\n        /* \"--CODEGEN--\":4842:4859   */\n      add\n        /* \"--CODEGEN--\":4833:4839   */\n      dup5\n        /* \"--CODEGEN--\":4789:4860   */\n      tag_65\n      jump\t// in\n    tag_99:\n        /* \"--CODEGEN--\":4746:4870   */\n      swap3\n      swap2\n      pop\n      pop\n      jump\t// out\n        /* \"--CODEGEN--\":4877:5133   */\n    tag_41:\n      0x00\n        /* \"--CODEGEN--\":4939:4941   */\n      0x40\n        /* \"--CODEGEN--\":4933:4942   */\n      mload\n        /* \"--CODEGEN--\":4923:4942   */\n      swap1\n      pop\n        /* \"--CODEGEN--\":4977:4981   */\n      dup2\n        /* \"--CODEGEN--\":4969:4975   */\n      dup2\n        /* \"--CODEGEN--\":4965:4982   */\n      add\n        /* \"--CODEGEN--\":5076:5082   */\n      dup2\n        /* \"--CODEGEN--\":5064:5074   */\n      dup2\n        /* \"--CODEGEN--\":5061:5083   */\n      lt\n        /* \"--CODEGEN--\":5040:5058   */\n      0xffffffffffffffff\n        /* \"--CODEGEN--\":5028:5038   */\n      dup3\n        /* \"--CODEGEN--\":5025:5059   */\n      gt\n        /* \"--CODEGEN--\":5022:5084   */\n      or\n        /* \"--CODEGEN--\":5019:5021   */\n      iszero\n      tag_101\n      jumpi\n        /* \"--CODEGEN--\":5097:5098   */\n      0x00\n        /* \"--CODEGEN--\":5094:5095   */\n      dup1\n        /* \"--CODEGEN--\":5087:5099   */\n      revert\n        /* \"--CODEGEN--\":5019:5021   */\n    tag_101:\n        /* \"--CODEGEN--\":5117:5127   */\n      dup1\n        /* \"--CODEGEN--\":5113:5115   */\n      0x40\n        /* \"--CODEGEN--\":5106:5128   */\n      mstore\n        /* \"--CODEGEN--\":4917:5133   */\n      pop\n      swap2\n      swap1\n      pop\n      jump\t// out\n        /* \"--CODEGEN--\":5140:5462   */\n    tag_40:\n      0x00\n        /* \"--CODEGEN--\":5284:5302   */\n      0xffffffffffffffff\n        /* \"--CODEGEN--\":5276:5282   */\n      dup3\n        /* \"--CODEGEN--\":5273:5303   */\n      gt\n        /* \"--CODEGEN--\":5270:5272   */\n      iszero\n      tag_103\n      jumpi\n        /* \"--CODEGEN--\":5316:5317   */\n      0x00\n        /* \"--CODEGEN--\":5313:5314   */\n      dup1\n        /* \"--CODEGEN--\":5306:5318   */\n      revert\n        /* \"--CODEGEN--\":5270:5272   */\n    tag_103:\n        /* \"--CODEGEN--\":5383:5387   */\n      0x1f\n        /* \"--CODEGEN--\":5379:5388   */\n      not\n        /* \"--CODEGEN--\":5372:5376   */\n      0x1f\n        /* \"--CODEGEN--\":5364:5370   */\n      dup4\n        /* \"--CODEGEN--\":5360:5377   */\n      add\n        /* \"--CODEGEN--\":5356:5389   */\n      and\n        /* \"--CODEGEN--\":5348:5389   */\n      swap1\n      pop\n        /* \"--CODEGEN--\":5447:5451   */\n      0x20\n        /* \"--CODEGEN--\":5441:5445   */\n      dup2\n        /* \"--CODEGEN--\":5437:5452   */\n      add\n        /* \"--CODEGEN--\":5429:5452   */\n      swap1\n      pop\n        /* \"--CODEGEN--\":5207:5462   */\n      swap2\n      swap1\n      pop\n      jump\t// out\n        /* \"--CODEGEN--\":5469:5591   */\n    tag_72:\n      0x00\n        /* \"--CODEGEN--\":5563:5568   */\n      dup2\n        /* \"--CODEGEN--\":5557:5569   */\n      mload\n        /* \"--CODEGEN--\":5547:5569   */\n      swap1\n      pop\n        /* \"--CODEGEN--\":5528:5591   */\n      swap2\n      swap1\n      pop\n      jump\t// out\n        /* \"--CODEGEN--\":5599:5744   */\n    tag_74:\n      0x00\n        /* \"--CODEGEN--\":5735:5738   */\n      dup2\n        /* \"--CODEGEN--\":5720:5738   */\n      swap1\n      pop\n        /* \"--CODEGEN--\":5713:5744   */\n      swap3\n      swap2\n      pop\n      pop\n      jump\t// out\n        /* \"--CODEGEN--\":5752:5843   */\n    tag_63:\n      0x00\n        /* \"--CODEGEN--\":5814:5838   */\n      tag_107\n        /* \"--CODEGEN--\":5832:5837   */\n      dup3\n        /* \"--CODEGEN--\":5814:5838   */\n      tag_108\n      jump\t// in\n    tag_107:\n        /* \"--CODEGEN--\":5803:5838   */\n      swap1\n      pop\n        /* \"--CODEGEN--\":5797:5843   */\n      swap2\n      swap1\n      pop\n      jump\t// out\n        /* \"--CODEGEN--\":5850:5922   */\n    tag_68:\n      0x00\n        /* \"--CODEGEN--\":5912:5917   */\n      dup2\n        /* \"--CODEGEN--\":5901:5917   */\n      swap1\n      pop\n        /* \"--CODEGEN--\":5895:5922   */\n      swap2\n      swap1\n      pop\n      jump\t// out\n        /* \"--CODEGEN--\":5929:6050   */\n    tag_108:\n      0x00\n        /* \"--CODEGEN--\":6002:6044   */\n      0xffffffffffffffffffffffffffffffffffffffff\n        /* \"--CODEGEN--\":5995:6000   */\n      dup3\n        /* \"--CODEGEN--\":5991:6045   */\n      and\n        /* \"--CODEGEN--\":5980:6045   */\n      swap1\n      pop\n        /* \"--CODEGEN--\":5974:6050   */\n      swap2\n      swap1\n      pop\n      jump\t// out\n        /* \"--CODEGEN--\":6057:6129   */\n    tag_84:\n      0x00\n        /* \"--CODEGEN--\":6119:6124   */\n      dup2\n        /* \"--CODEGEN--\":6108:6124   */\n      swap1\n      pop\n        /* \"--CODEGEN--\":6102:6129   */\n      swap2\n      swap1\n      pop\n      jump\t// out\n        /* \"--CODEGEN--\":6137:6282   */\n    tag_44:\n        /* \"--CODEGEN--\":6218:6224   */\n      dup3\n        /* \"--CODEGEN--\":6213:6216   */\n      dup2\n        /* \"--CODEGEN--\":6208:6211   */\n      dup4\n        /* \"--CODEGEN--\":6195:6225   */\n      calldatacopy\n        /* \"--CODEGEN--\":6274:6275   */\n      0x00\n        /* \"--CODEGEN--\":6265:6271   */\n      dup4\n        /* \"--CODEGEN--\":6260:6263   */\n      dup4\n        /* \"--CODEGEN--\":6256:6272   */\n      add\n        /* \"--CODEGEN--\":6249:6276   */\n      mstore\n        /* \"--CODEGEN--\":6188:6282   */\n      pop\n      pop\n      pop\n      jump\t// out\n        /* \"--CODEGEN--\":6291:6559   */\n    tag_76:\n        /* \"--CODEGEN--\":6356:6357   */\n      0x00\n        /* \"--CODEGEN--\":6363:6464   */\n    tag_114:\n        /* \"--CODEGEN--\":6377:6383   */\n      dup4\n        /* \"--CODEGEN--\":6374:6375   */\n      dup2\n        /* \"--CODEGEN--\":6371:6384   */\n      lt\n        /* \"--CODEGEN--\":6363:6464   */\n      iszero\n      tag_116\n      jumpi\n        /* \"--CODEGEN--\":6453:6454   */\n      dup1\n        /* \"--CODEGEN--\":6448:6451   */\n      dup3\n        /* \"--CODEGEN--\":6444:6455   */\n      add\n        /* \"--CODEGEN--\":6438:6456   */\n      mload\n        /* \"--CODEGEN--\":6434:6435   */\n      dup2\n        /* \"--CODEGEN--\":6429:6432   */\n      dup5\n        /* \"--CODEGEN--\":6425:6436   */\n      add\n        /* \"--CODEGEN--\":6418:6457   */\n      mstore\n        /* \"--CODEGEN--\":6399:6401   */\n      0x20\n        /* \"--CODEGEN--\":6396:6397   */\n      dup2\n        /* \"--CODEGEN--\":6392:6402   */\n      add\n        /* \"--CODEGEN--\":6387:6402   */\n      swap1\n      pop\n        /* \"--CODEGEN--\":6363:6464   */\n      jump(tag_114)\n    tag_116:\n        /* \"--CODEGEN--\":6479:6485   */\n      dup4\n        /* \"--CODEGEN--\":6476:6477   */\n      dup2\n        /* \"--CODEGEN--\":6473:6486   */\n      gt\n        /* \"--CODEGEN--\":6470:6472   */\n      iszero\n      tag_117\n      jumpi\n        /* \"--CODEGEN--\":6544:6545   */\n      0x00\n        /* \"--CODEGEN--\":6535:6541   */\n      dup5\n        /* \"--CODEGEN--\":6530:6533   */\n      dup5\n        /* \"--CODEGEN--\":6526:6542   */\n      add\n        /* \"--CODEGEN--\":6519:6546   */\n      mstore\n        /* \"--CODEGEN--\":6470:6472   */\n    tag_117:\n        /* \"--CODEGEN--\":6340:6559   */\n      pop\n      pop\n      pop\n      pop\n      jump\t// out\n        /* \"--CODEGEN--\":6567:6662   */\n    tag_64:\n      0x00\n        /* \"--CODEGEN--\":6631:6657   */\n      tag_119\n        /* \"--CODEGEN--\":6651:6656   */\n      dup3\n        /* \"--CODEGEN--\":6631:6657   */\n      tag_120\n      jump\t// in\n    tag_119:\n        /* \"--CODEGEN--\":6620:6657   */\n      swap1\n      pop\n        /* \"--CODEGEN--\":6614:6662   */\n      swap2\n      swap1\n      pop\n      jump\t// out\n        /* \"--CODEGEN--\":6669:6758   */\n    tag_120:\n      0x00\n        /* \"--CODEGEN--\":6733:6753   */\n      tag_122\n        /* \"--CODEGEN--\":6747:6752   */\n      dup3\n        /* \"--CODEGEN--\":6733:6753   */\n      tag_123\n      jump\t// in\n    tag_122:\n        /* \"--CODEGEN--\":6722:6753   */\n      swap1\n      pop\n        /* \"--CODEGEN--\":6716:6758   */\n      swap2\n      swap1\n      pop\n      jump\t// out\n        /* \"--CODEGEN--\":6765:6839   */\n    tag_85:\n      0x00\n        /* \"--CODEGEN--\":6829:6834   */\n      dup2\n        /* \"--CODEGEN--\":6818:6834   */\n      swap1\n      pop\n        /* \"--CODEGEN--\":6812:6839   */\n      swap2\n      swap1\n      pop\n      jump\t// out\n        /* \"--CODEGEN--\":6846:6940   */\n    tag_123:\n      0x00\n        /* \"--CODEGEN--\":6924:6929   */\n      dup2\n        /* \"--CODEGEN--\":6920:6922   */\n      0x60\n        /* \"--CODEGEN--\":6916:6930   */\n      shl\n        /* \"--CODEGEN--\":6894:6930   */\n      swap1\n      pop\n        /* \"--CODEGEN--\":6888:6940   */\n      swap2\n      swap1\n      pop\n      jump\t// out\n        /* \"--CODEGEN--\":6948:7065   */\n    tag_34:\n        /* \"--CODEGEN--\":7017:7041   */\n      tag_127\n        /* \"--CODEGEN--\":7035:7040   */\n      dup2\n        /* \"--CODEGEN--\":7017:7041   */\n      tag_63\n      jump\t// in\n    tag_127:\n        /* \"--CODEGEN--\":7010:7015   */\n      dup2\n        /* \"--CODEGEN--\":7007:7042   */\n      eq\n        /* \"--CODEGEN--\":6997:6999   */\n      tag_128\n      jumpi\n        /* \"--CODEGEN--\":7056:7057   */\n      0x00\n        /* \"--CODEGEN--\":7053:7054   */\n      dup1\n        /* \"--CODEGEN--\":7046:7058   */\n      revert\n        /* \"--CODEGEN--\":6997:6999   */\n    tag_128:\n        /* \"--CODEGEN--\":6991:7065   */\n      pop\n      jump\t// out\n        /* \"--CODEGEN--\":7072:7189   */\n    tag_48:\n        /* \"--CODEGEN--\":7141:7165   */\n      tag_130\n        /* \"--CODEGEN--\":7159:7164   */\n      dup2\n        /* \"--CODEGEN--\":7141:7165   */\n      tag_84\n      jump\t// in\n    tag_130:\n        /* \"--CODEGEN--\":7134:7139   */\n      dup2\n        /* \"--CODEGEN--\":7131:7166   */\n      eq\n        /* \"--CODEGEN--\":7121:7123   */\n      tag_131\n      jumpi\n        /* \"--CODEGEN--\":7180:7181   */\n      0x00\n        /* \"--CODEGEN--\":7177:7178   */\n      dup1\n        /* \"--CODEGEN--\":7170:7182   */\n      revert\n        /* \"--CODEGEN--\":7121:7123   */\n    tag_131:\n        /* \"--CODEGEN--\":7115:7189   */\n      pop\n      jump\t// out\n\n    auxdata: 0xa26469706673582212207265c3e805b575a139e467fc99d55587fa244b7c214301adb46c1204ac18a0c764736f6c634300060c0033\n}\n",
				"bytecode": {
					"linkReferences": {},
					"object": "608060405234801561001057600080fd5b5061059f806100206000396000f3fe608060405234801561001057600080fd5b50600436106100415760003560e01c80633d76e9091461004657806352de28e814610076578063da100b1d146100a6575b600080fd5b610060600480360381019061005b91906101f3565b6100d6565b60405161006d91906103ee565b60405180910390f35b610090600480360381019061008b9190610234565b610106565b60405161009d91906103ee565b60405180910390f35b6100c060048036038101906100bb9190610234565b61013f565b6040516100cd91906103ee565b60405180910390f35b6000816040516020016100e99190610349565b604051602081830303815290604052805190602001209050919050565b600083838360016040516020016101209493929190610399565b6040516020818303038152906040528051906020012090509392505050565b600083838360405160200161015693929190610360565b6040516020818303038152906040528051906020012090509392505050565b6000813590506101848161053b565b92915050565b600082601f83011261019b57600080fd5b81356101ae6101a982610436565b610409565b915080825260208301602083018583830111156101ca57600080fd5b6101d58382846104be565b50505092915050565b6000813590506101ed81610552565b92915050565b60006020828403121561020557600080fd5b600082013567ffffffffffffffff81111561021f57600080fd5b61022b8482850161018a565b91505092915050565b60008060006060848603121561024957600080fd5b600084013567ffffffffffffffff81111561026357600080fd5b61026f8682870161018a565b9350506020610280868287016101de565b925050604061029186828701610175565b9150509250925092565b6102ac6102a782610478565b610500565b82525050565b6102bb8161048a565b82525050565b60006102cc82610462565b6102d6818561046d565b93506102e68185602086016104cd565b80840191505092915050565b60006102ff60048361046d565b91507f686f6c61000000000000000000000000000000000000000000000000000000006000830152600482019050919050565b61034361033e826104b4565b610524565b82525050565b600061035582846102c1565b915081905092915050565b600061036c82866102c1565b91506103788285610332565b602082019150610388828461029b565b601482019150819050949350505050565b60006103a582876102c1565b91506103b18286610332565b6020820191506103c1828561029b565b6014820191506103d0826102f2565b91506103dc8284610332565b60208201915081905095945050505050565b600060208201905061040360008301846102b2565b92915050565b6000604051905081810181811067ffffffffffffffff8211171561042c57600080fd5b8060405250919050565b600067ffffffffffffffff82111561044d57600080fd5b601f19601f8301169050602081019050919050565b600081519050919050565b600081905092915050565b600061048382610494565b9050919050565b6000819050919050565b600073ffffffffffffffffffffffffffffffffffffffff82169050919050565b6000819050919050565b82818337600083830152505050565b60005b838110156104eb5780820151818401526020810190506104d0565b838111156104fa576000848401525b50505050565b600061050b82610512565b9050919050565b600061051d8261052e565b9050919050565b6000819050919050565b60008160601b9050919050565b61054481610478565b811461054f57600080fd5b50565b61055b816104b4565b811461056657600080fd5b5056fea26469706673582212207265c3e805b575a139e467fc99d55587fa244b7c214301adb46c1204ac18a0c764736f6c634300060c0033",
					"opcodes": "PUSH1 0x80 PUSH1 0x40 MSTORE CALLVALUE DUP1 ISZERO PUSH2 0x10 JUMPI PUSH1 0x0 DUP1 REVERT JUMPDEST POP PUSH2 0x59F DUP1 PUSH2 0x20 PUSH1 0x0 CODECOPY PUSH1 0x0 RETURN INVALID PUSH1 0x80 PUSH1 0x40 MSTORE CALLVALUE DUP1 ISZERO PUSH2 0x10 JUMPI PUSH1 0x0 DUP1 REVERT JUMPDEST POP PUSH1 0x4 CALLDATASIZE LT PUSH2 0x41 JUMPI PUSH1 0x0 CALLDATALOAD PUSH1 0xE0 SHR DUP1 PUSH4 0x3D76E909 EQ PUSH2 0x46 JUMPI DUP1 PUSH4 0x52DE28E8 EQ PUSH2 0x76 JUMPI DUP1 PUSH4 0xDA100B1D EQ PUSH2 0xA6 JUMPI JUMPDEST PUSH1 0x0 DUP1 REVERT JUMPDEST PUSH2 0x60 PUSH1 0x4 DUP1 CALLDATASIZE SUB DUP2 ADD SWAP1 PUSH2 0x5B SWAP2 SWAP1 PUSH2 0x1F3 JUMP JUMPDEST PUSH2 0xD6 JUMP JUMPDEST PUSH1 0x40 MLOAD PUSH2 0x6D SWAP2 SWAP1 PUSH2 0x3EE JUMP JUMPDEST PUSH1 0x40 MLOAD DUP1 SWAP2 SUB SWAP1 RETURN JUMPDEST PUSH2 0x90 PUSH1 0x4 DUP1 CALLDATASIZE SUB DUP2 ADD SWAP1 PUSH2 0x8B SWAP2 SWAP1 PUSH2 0x234 JUMP JUMPDEST PUSH2 0x106 JUMP JUMPDEST PUSH1 0x40 MLOAD PUSH2 0x9D SWAP2 SWAP1 PUSH2 0x3EE JUMP JUMPDEST PUSH1 0x40 MLOAD DUP1 SWAP2 SUB SWAP1 RETURN JUMPDEST PUSH2 0xC0 PUSH1 0x4 DUP1 CALLDATASIZE SUB DUP2 ADD SWAP1 PUSH2 0xBB SWAP2 SWAP1 PUSH2 0x234 JUMP JUMPDEST PUSH2 0x13F JUMP JUMPDEST PUSH1 0x40 MLOAD PUSH2 0xCD SWAP2 SWAP1 PUSH2 0x3EE JUMP JUMPDEST PUSH1 0x40 MLOAD DUP1 SWAP2 SUB SWAP1 RETURN JUMPDEST PUSH1 0x0 DUP2 PUSH1 0x40 MLOAD PUSH1 0x20 ADD PUSH2 0xE9 SWAP2 SWAP1 PUSH2 0x349 JUMP JUMPDEST PUSH1 0x40 MLOAD PUSH1 0x20 DUP2 DUP4 SUB SUB DUP2 MSTORE SWAP1 PUSH1 0x40 MSTORE DUP1 MLOAD SWAP1 PUSH1 0x20 ADD KECCAK256 SWAP1 POP SWAP2 SWAP1 POP JUMP JUMPDEST PUSH1 0x0 DUP4 DUP4 DUP4 PUSH1 0x1 PUSH1 0x40 MLOAD PUSH1 0x20 ADD PUSH2 0x120 SWAP5 SWAP4 SWAP3 SWAP2 SWAP1 PUSH2 0x399 JUMP JUMPDEST PUSH1 0x40 MLOAD PUSH1 0x20 DUP2 DUP4 SUB SUB DUP2 MSTORE SWAP1 PUSH1 0x40 MSTORE DUP1 MLOAD SWAP1 PUSH1 0x20 ADD KECCAK256 SWAP1 POP SWAP4 SWAP3 POP POP POP JUMP JUMPDEST PUSH1 0x0 DUP4 DUP4 DUP4 PUSH1 0x40 MLOAD PUSH1 0x20 ADD PUSH2 0x156 SWAP4 SWAP3 SWAP2 SWAP1 PUSH2 0x360 JUMP JUMPDEST PUSH1 0x40 MLOAD PUSH1 0x20 DUP2 DUP4 SUB SUB DUP2 MSTORE SWAP1 PUSH1 0x40 MSTORE DUP1 MLOAD SWAP1 PUSH1 0x20 ADD KECCAK256 SWAP1 POP SWAP4 SWAP3 POP POP POP JUMP JUMPDEST PUSH1 0x0 DUP2 CALLDATALOAD SWAP1 POP PUSH2 0x184 DUP2 PUSH2 0x53B JUMP JUMPDEST SWAP3 SWAP2 POP POP JUMP JUMPDEST PUSH1 0x0 DUP3 PUSH1 0x1F DUP4 ADD SLT PUSH2 0x19B JUMPI PUSH1 0x0 DUP1 REVERT JUMPDEST DUP2 CALLDATALOAD PUSH2 0x1AE PUSH2 0x1A9 DUP3 PUSH2 0x436 JUMP JUMPDEST PUSH2 0x409 JUMP JUMPDEST SWAP2 POP DUP1 DUP3 MSTORE PUSH1 0x20 DUP4 ADD PUSH1 0x20 DUP4 ADD DUP6 DUP4 DUP4 ADD GT ISZERO PUSH2 0x1CA JUMPI PUSH1 0x0 DUP1 REVERT JUMPDEST PUSH2 0x1D5 DUP4 DUP3 DUP5 PUSH2 0x4BE JUMP JUMPDEST POP POP POP SWAP3 SWAP2 POP POP JUMP JUMPDEST PUSH1 0x0 DUP2 CALLDATALOAD SWAP1 POP PUSH2 0x1ED DUP2 PUSH2 0x552 JUMP JUMPDEST SWAP3 SWAP2 POP POP JUMP JUMPDEST PUSH1 0x0 PUSH1 0x20 DUP3 DUP5 SUB SLT ISZERO PUSH2 0x205 JUMPI PUSH1 0x0 DUP1 REVERT JUMPDEST PUSH1 0x0 DUP3 ADD CALLDATALOAD PUSH8 0xFFFFFFFFFFFFFFFF DUP2 GT ISZERO PUSH2 0x21F JUMPI PUSH1 0x0 DUP1 REVERT JUMPDEST PUSH2 0x22B DUP5 DUP3 DUP6 ADD PUSH2 0x18A JUMP JUMPDEST SWAP2 POP POP SWAP3 SWAP2 POP POP JUMP JUMPDEST PUSH1 0x0 DUP1 PUSH1 0x0 PUSH1 0x60 DUP5 DUP7 SUB SLT ISZERO PUSH2 0x249 JUMPI PUSH1 0x0 DUP1 REVERT JUMPDEST PUSH1 0x0 DUP5 ADD CALLDATALOAD PUSH8 0xFFFFFFFFFFFFFFFF DUP2 GT ISZERO PUSH2 0x263 JUMPI PUSH1 0x0 DUP1 REVERT JUMPDEST PUSH2 0x26F DUP7 DUP3 DUP8 ADD PUSH2 0x18A JUMP JUMPDEST SWAP4 POP POP PUSH1 0x20 PUSH2 0x280 DUP7 DUP3 DUP8 ADD PUSH2 0x1DE JUMP JUMPDEST SWAP3 POP POP PUSH1 0x40 PUSH2 0x291 DUP7 DUP3 DUP8 ADD PUSH2 0x175 JUMP JUMPDEST SWAP2 POP POP SWAP3 POP SWAP3 POP SWAP3 JUMP JUMPDEST PUSH2 0x2AC PUSH2 0x2A7 DUP3 PUSH2 0x478 JUMP JUMPDEST PUSH2 0x500 JUMP JUMPDEST DUP3 MSTORE POP POP JUMP JUMPDEST PUSH2 0x2BB DUP2 PUSH2 0x48A JUMP JUMPDEST DUP3 MSTORE POP POP JUMP JUMPDEST PUSH1 0x0 PUSH2 0x2CC DUP3 PUSH2 0x462 JUMP JUMPDEST PUSH2 0x2D6 DUP2 DUP6 PUSH2 0x46D JUMP JUMPDEST SWAP4 POP PUSH2 0x2E6 DUP2 DUP6 PUSH1 0x20 DUP7 ADD PUSH2 0x4CD JUMP JUMPDEST DUP1 DUP5 ADD SWAP2 POP POP SWAP3 SWAP2 POP POP JUMP JUMPDEST PUSH1 0x0 PUSH2 0x2FF PUSH1 0x4 DUP4 PUSH2 0x46D JUMP JUMPDEST SWAP2 POP PUSH32 0x686F6C6100000000000000000000000000000000000000000000000000000000 PUSH1 0x0 DUP4 ADD MSTORE PUSH1 0x4 DUP3 ADD SWAP1 POP SWAP2 SWAP1 POP JUMP JUMPDEST PUSH2 0x343 PUSH2 0x33E DUP3 PUSH2 0x4B4 JUMP JUMPDEST PUSH2 0x524 JUMP JUMPDEST DUP3 MSTORE POP POP JUMP JUMPDEST PUSH1 0x0 PUSH2 0x355 DUP3 DUP5 PUSH2 0x2C1 JUMP JUMPDEST SWAP2 POP DUP2 SWAP1 POP SWAP3 SWAP2 POP POP JUMP JUMPDEST PUSH1 0x0 PUSH2 0x36C DUP3 DUP7 PUSH2 0x2C1 JUMP JUMPDEST SWAP2 POP PUSH2 0x378 DUP3 DUP6 PUSH2 0x332 JUMP JUMPDEST PUSH1 0x20 DUP3 ADD SWAP2 POP PUSH2 0x388 DUP3 DUP5 PUSH2 0x29B JUMP JUMPDEST PUSH1 0x14 DUP3 ADD SWAP2 POP DUP2 SWAP1 POP SWAP5 SWAP4 POP POP POP POP JUMP JUMPDEST PUSH1 0x0 PUSH2 0x3A5 DUP3 DUP8 PUSH2 0x2C1 JUMP JUMPDEST SWAP2 POP PUSH2 0x3B1 DUP3 DUP7 PUSH2 0x332 JUMP JUMPDEST PUSH1 0x20 DUP3 ADD SWAP2 POP PUSH2 0x3C1 DUP3 DUP6 PUSH2 0x29B JUMP JUMPDEST PUSH1 0x14 DUP3 ADD SWAP2 POP PUSH2 0x3D0 DUP3 PUSH2 0x2F2 JUMP JUMPDEST SWAP2 POP PUSH2 0x3DC DUP3 DUP5 PUSH2 0x332 JUMP JUMPDEST PUSH1 0x20 DUP3 ADD SWAP2 POP DUP2 SWAP1 POP SWAP6 SWAP5 POP POP POP POP POP JUMP JUMPDEST PUSH1 0x0 PUSH1 0x20 DUP3 ADD SWAP1 POP PUSH2 0x403 PUSH1 0x0 DUP4 ADD DUP5 PUSH2 0x2B2 JUMP JUMPDEST SWAP3 SWAP2 POP POP JUMP JUMPDEST PUSH1 0x0 PUSH1 0x40 MLOAD SWAP1 POP DUP2 DUP2 ADD DUP2 DUP2 LT PUSH8 0xFFFFFFFFFFFFFFFF DUP3 GT OR ISZERO PUSH2 0x42C JUMPI PUSH1 0x0 DUP1 REVERT JUMPDEST DUP1 PUSH1 0x40 MSTORE POP SWAP2 SWAP1 POP JUMP JUMPDEST PUSH1 0x0 PUSH8 0xFFFFFFFFFFFFFFFF DUP3 GT ISZERO PUSH2 0x44D JUMPI PUSH1 0x0 DUP1 REVERT JUMPDEST PUSH1 0x1F NOT PUSH1 0x1F DUP4 ADD AND SWAP1 POP PUSH1 0x20 DUP2 ADD SWAP1 POP SWAP2 SWAP1 POP JUMP JUMPDEST PUSH1 0x0 DUP2 MLOAD SWAP1 POP SWAP2 SWAP1 POP JUMP JUMPDEST PUSH1 0x0 DUP2 SWAP1 POP SWAP3 SWAP2 POP POP JUMP JUMPDEST PUSH1 0x0 PUSH2 0x483 DUP3 PUSH2 0x494 JUMP JUMPDEST SWAP1 POP SWAP2 SWAP1 POP JUMP JUMPDEST PUSH1 0x0 DUP2 SWAP1 POP SWAP2 SWAP1 POP JUMP JUMPDEST PUSH1 0x0 PUSH20 0xFFFFFFFFFFFFFFFFFFFFFFFFFFFFFFFFFFFFFFFF DUP3 AND SWAP1 POP SWAP2 SWAP1 POP JUMP JUMPDEST PUSH1 0x0 DUP2 SWAP1 POP SWAP2 SWAP1 POP JUMP JUMPDEST DUP3 DUP2 DUP4 CALLDATACOPY PUSH1 0x0 DUP4 DUP4 ADD MSTORE POP POP POP JUMP JUMPDEST PUSH1 0x0 JUMPDEST DUP4 DUP2 LT ISZERO PUSH2 0x4EB JUMPI DUP1 DUP3 ADD MLOAD DUP2 DUP5 ADD MSTORE PUSH1 0x20 DUP2 ADD SWAP1 POP PUSH2 0x4D0 JUMP JUMPDEST DUP4 DUP2 GT ISZERO PUSH2 0x4FA JUMPI PUSH1 0x0 DUP5 DUP5 ADD MSTORE JUMPDEST POP POP POP POP JUMP JUMPDEST PUSH1 0x0 PUSH2 0x50B DUP3 PUSH2 0x512 JUMP JUMPDEST SWAP1 POP SWAP2 SWAP1 POP JUMP JUMPDEST PUSH1 0x0 PUSH2 0x51D DUP3 PUSH2 0x52E JUMP JUMPDEST SWAP1 POP SWAP2 SWAP1 POP JUMP JUMPDEST PUSH1 0x0 DUP2 SWAP1 POP SWAP2 SWAP1 POP JUMP JUMPDEST PUSH1 0x0 DUP2 PUSH1 0x60 SHL SWAP1 POP SWAP2 SWAP1 POP JUMP JUMPDEST PUSH2 0x544 DUP2 PUSH2 0x478 JUMP JUMPDEST DUP2 EQ PUSH2 0x54F JUMPI PUSH1 0x0 DUP1 REVERT JUMPDEST POP JUMP JUMPDEST PUSH2 0x55B DUP2 PUSH2 0x4B4 JUMP JUMPDEST DUP2 EQ PUSH2 0x566 JUMPI PUSH1 0x0 DUP1 REVERT JUMPDEST POP JUMP INVALID LOG2 PUSH5 0x6970667358 0x22 SLT KECCAK256 PUSH19 0x65C3E805B575A139E467FC99D55587FA244B7C 0x21 NUMBER ADD 0xAD 0xB4 PUSH13 0x1204AC18A0C764736F6C634300 MOD 0xC STOP CALLER "
				},
				"gasEstimates": {
					"creation": {
						"codeDepositCost": "287800",
						"executionCost": "324",
						"totalCost": "288124"
					},
					"external": {
						"calcularHash(string)": "infinite",
						"calcularHash2(string,uint256,address)": "infinite",
						"calcularHash3(string,uint256,address)": "infinite"
					}
				},
				"methodIdentifiers": {
					"calcularHash(string)": "3d76e909",
					"calcularHash2(string,uint256,address)": "da100b1d",
					"calcularHash3(string,uint256,address)": "52de28e8"
				}
			},
			"storageLayout": {
				"storage": [],
				"types": null
			},
			"userdoc": {
				"kind": "user",
				"methods": {},
				"version": 1
			}
		}
	}
}